{
  "contractName": "Store",
  "abi": [
    {
      "constant": true,
      "inputs": [
        {
          "name": "",
          "type": "uint256"
        }
      ],
      "name": "ownersList",
      "outputs": [
        {
          "name": "",
          "type": "bytes32"
        }
      ],
      "payable": false,
      "stateMutability": "view",
      "type": "function",
      "signature": "0x402824ae"
    },
    {
      "constant": true,
      "inputs": [
        {
          "name": "",
          "type": "address"
        }
      ],
      "name": "wallets",
      "outputs": [
        {
          "name": "",
          "type": "uint256"
        }
      ],
      "payable": false,
      "stateMutability": "view",
      "type": "function",
      "signature": "0x89b08f11"
    },
    {
      "constant": true,
      "inputs": [
        {
          "name": "",
          "type": "uint256"
        }
      ],
      "name": "buyersList",
      "outputs": [
        {
          "name": "",
          "type": "bytes32"
        }
      ],
      "payable": false,
      "stateMutability": "view",
      "type": "function",
      "signature": "0xc8542c41"
    },
    {
      "inputs": [
        {
          "name": "owners",
          "type": "bytes32[]"
        },
        {
          "name": "buyers",
          "type": "bytes32[]"
        }
      ],
      "payable": false,
      "stateMutability": "nonpayable",
      "type": "constructor",
      "signature": "constructor"
    },
    {
      "anonymous": false,
      "inputs": [
        {
          "indexed": false,
          "name": "from",
          "type": "address"
        },
        {
          "indexed": false,
          "name": "to",
          "type": "address"
        },
        {
          "indexed": false,
          "name": "value",
          "type": "uint256"
        }
      ],
      "name": "Transfer",
      "type": "event",
      "signature": "0xddf252ad1be2c89b69c2b068fc378daa952ba7f163c4a11628f55a4df523b3ef"
    },
    {
      "constant": false,
      "inputs": [
        {
          "name": "code",
          "type": "string"
        }
      ],
      "name": "buyMusic",
      "outputs": [
        {
          "name": "success",
          "type": "bool"
        }
      ],
      "payable": false,
      "stateMutability": "nonpayable",
      "type": "function",
      "signature": "0x9f1b5f62"
    },
    {
      "constant": false,
      "inputs": [
        {
          "name": "code",
          "type": "string"
        },
        {
          "name": "musicName",
          "type": "bytes32"
        },
        {
          "name": "cost",
          "type": "uint256"
        }
      ],
      "name": "uploadMusic",
      "outputs": [
        {
          "name": "",
          "type": "bytes32"
        },
        {
          "name": "",
          "type": "uint256"
        }
      ],
      "payable": true,
      "stateMutability": "payable",
      "type": "function",
      "signature": "0x9b1e3acc"
    },
    {
      "constant": true,
      "inputs": [],
      "name": "allOwners",
      "outputs": [
        {
          "name": "",
          "type": "bytes32[]"
        }
      ],
      "payable": false,
      "stateMutability": "view",
      "type": "function",
      "signature": "0xa12a52dc"
    },
    {
      "constant": true,
      "inputs": [],
      "name": "allBuyers",
      "outputs": [
        {
          "name": "",
          "type": "bytes32[]"
        }
      ],
      "payable": false,
      "stateMutability": "view",
      "type": "function",
      "signature": "0x01db4ac6"
    },
    {
      "constant": true,
      "inputs": [
        {
          "name": "pAddress",
          "type": "address"
        }
      ],
      "name": "getWallet",
      "outputs": [
        {
          "name": "",
          "type": "uint256"
        }
      ],
      "payable": false,
      "stateMutability": "view",
      "type": "function",
      "signature": "0x04d0a647"
    },
    {
      "constant": true,
      "inputs": [
        {
          "name": "ownerAddress",
          "type": "address"
        },
        {
          "name": "index",
          "type": "uint256"
        }
      ],
      "name": "downloadMusic",
      "outputs": [
        {
          "name": "",
          "type": "string"
        },
        {
          "name": "",
          "type": "bytes32"
        },
        {
          "name": "",
          "type": "uint256"
        }
      ],
      "payable": false,
      "stateMutability": "view",
      "type": "function",
      "signature": "0xbdbdeeef"
    },
    {
      "constant": true,
      "inputs": [
        {
          "name": "code",
          "type": "string"
        },
        {
          "name": "buyerAddress",
          "type": "address"
        }
      ],
      "name": "checkMusicForBuyer",
      "outputs": [
        {
          "name": "",
          "type": "bool"
        }
      ],
      "payable": false,
      "stateMutability": "view",
      "type": "function",
      "signature": "0x539354de"
    },
    {
      "constant": true,
      "inputs": [
        {
          "name": "ownerAddress",
          "type": "address"
        }
      ],
      "name": "getMusicCount",
      "outputs": [
        {
          "name": "",
          "type": "uint256"
        }
      ],
      "payable": false,
      "stateMutability": "view",
      "type": "function",
      "signature": "0xb51dc575"
    },
    {
      "constant": false,
      "inputs": [
        {
          "name": "amount",
          "type": "uint256"
        }
      ],
      "name": "addToWallet",
      "outputs": [
        {
          "name": "success",
          "type": "bool"
        }
      ],
      "payable": true,
      "stateMutability": "payable",
      "type": "function",
      "signature": "0x48140269"
    },
    {
      "constant": true,
      "inputs": [
        {
          "name": "code",
          "type": "string"
        }
      ],
      "name": "validMusic",
      "outputs": [
        {
          "name": "",
          "type": "bool"
        }
      ],
      "payable": false,
      "stateMutability": "view",
      "type": "function",
      "signature": "0x45ee6e80"
    }
  ],
  "bytecode": "0x60806040523480156200001157600080fd5b506040516200185738038062001857833981018060405260408110156200003757600080fd5b8101908080516401000000008111156200005057600080fd5b828101905060208101848111156200006757600080fd5b81518560208202830111640100000000821117156200008557600080fd5b50509291906020018051640100000000811115620000a257600080fd5b82810190506020810184811115620000b957600080fd5b8151856020820283011164010000000082111715620000d757600080fd5b50509291905050508160059080519060200190620000f792919062000119565b5080600690805190602001906200011092919062000119565b50505062000193565b82805482825590600052602060002090810192821562000158579160200282015b82811115620001575782518255916020019190600101906200013a565b5b5090506200016791906200016b565b5090565b6200019091905b808211156200018c57600081600090555060010162000172565b5090565b90565b6116b480620001a36000396000f3fe6080604052600436106100c5576000357c0100000000000000000000000000000000000000000000000000000000900463ffffffff16806301db4ac6146100ca57806304d0a64714610136578063402824ae1461019b57806345ee6e80146101ea57806348140269146102ca578063539354de1461031057806389b08f11146104105780639b1e3acc146104755780639f1b5f621461055f578063a12a52dc1461063f578063b51dc575146106ab578063bdbdeeef14610710578063c8542c41146107f2575b600080fd5b3480156100d657600080fd5b506100df610841565b6040518080602001828103825283818151815260200191508051906020019060200280838360005b83811015610122578082015181840152602081019050610107565b505050509050019250505060405180910390f35b34801561014257600080fd5b506101856004803603602081101561015957600080fd5b81019080803573ffffffffffffffffffffffffffffffffffffffff169060200190929190505050610899565b6040518082815260200191505060405180910390f35b3480156101a757600080fd5b506101d4600480360360208110156101be57600080fd5b81019080803590602001909291905050506108e2565b6040518082815260200191505060405180910390f35b3480156101f657600080fd5b506102b06004803603602081101561020d57600080fd5b810190808035906020019064010000000081111561022a57600080fd5b82018360208201111561023c57600080fd5b8035906020019184600183028401116401000000008311171561025e57600080fd5b91908080601f016020809104026020016040519081016040528093929190818152602001838380828437600081840152601f19601f820116905080830192505050505050509192919290505050610905565b604051808215151515815260200191505060405180910390f35b6102f6600480360360208110156102e057600080fd5b81019080803590602001909291905050506109cb565b604051808215151515815260200191505060405180910390f35b34801561031c57600080fd5b506103f66004803603604081101561033357600080fd5b810190808035906020019064010000000081111561035057600080fd5b82018360208201111561036257600080fd5b8035906020019184600183028401116401000000008311171561038457600080fd5b91908080601f016020809104026020016040519081016040528093929190818152602001838380828437600081840152601f19601f820116905080830192505050505050509192919290803573ffffffffffffffffffffffffffffffffffffffff169060200190929190505050610a23565b604051808215151515815260200191505060405180910390f35b34801561041c57600080fd5b5061045f6004803603602081101561043357600080fd5b81019080803573ffffffffffffffffffffffffffffffffffffffff169060200190929190505050610b6a565b6040518082815260200191505060405180910390f35b6105426004803603606081101561048b57600080fd5b81019080803590602001906401000000008111156104a857600080fd5b8201836020820111156104ba57600080fd5b803590602001918460018302840111640100000000831117156104dc57600080fd5b91908080601f016020809104026020016040519081016040528093929190818152602001838380828437600081840152601f19601f8201169050808301925050505050505091929192908035906020019092919080359060200190929190505050610b82565b604051808381526020018281526020019250505060405180910390f35b34801561056b57600080fd5b506106256004803603602081101561058257600080fd5b810190808035906020019064010000000081111561059f57600080fd5b8201836020820111156105b157600080fd5b803590602001918460018302840111640100000000831117156105d357600080fd5b91908080601f016020809104026020016040519081016040528093929190818152602001838380828437600081840152601f19601f820116905080830192505050505050509192919290505050610ed4565b604051808215151515815260200191505060405180910390f35b34801561064b57600080fd5b50610654611331565b6040518080602001828103825283818151815260200191508051906020019060200280838360005b8381101561069757808201518184015260208101905061067c565b505050509050019250505060405180910390f35b3480156106b757600080fd5b506106fa600480360360208110156106ce57600080fd5b81019080803573ffffffffffffffffffffffffffffffffffffffff169060200190929190505050611389565b6040518082815260200191505060405180910390f35b34801561071c57600080fd5b506107696004803603604081101561073357600080fd5b81019080803573ffffffffffffffffffffffffffffffffffffffff169060200190929190803590602001909291905050506113d8565b6040518080602001848152602001838152602001828103825285818151815260200191508051906020019080838360005b838110156107b557808201518184015260208101905061079a565b50505050905090810190601f1680156107e25780820380516001836020036101000a031916815260200191505b5094505050505060405180910390f35b3480156107fe57600080fd5b5061082b6004803603602081101561081557600080fd5b81019080803590602001909291905050506115c0565b6040518082815260200191505060405180910390f35b6060600680548060200260200160405190810160405280929190818152602001828054801561088f57602002820191906000526020600020905b81548152602001906001019080831161087b575b5050505050905090565b6000600160008373ffffffffffffffffffffffffffffffffffffffff1673ffffffffffffffffffffffffffffffffffffffff168152602001908152602001600020549050919050565b6005818154811015156108f157fe5b906000526020600020016000915090505481565b600080600090505b6000805490508110156109c057828051906020012060008281548110151561093157fe5b9060005260206000200160405180828054600181600116156101000203166002900480156109965780601f10610974576101008083540402835291820191610996565b820191906000526020600020905b815481529060010190602001808311610982575b5050915050604051809103902014156109b35760009150506109c6565b808060010191505061090d565b50600190505b919050565b600081600160003373ffffffffffffffffffffffffffffffffffffffff1673ffffffffffffffffffffffffffffffffffffffff1681526020019081526020016000206000828254019250508190555060019050919050565b600080600090505b600460008473ffffffffffffffffffffffffffffffffffffffff1673ffffffffffffffffffffffffffffffffffffffff16815260200190815260200160002060000180549050811015610b5e578380519060200120600460008573ffffffffffffffffffffffffffffffffffffffff1673ffffffffffffffffffffffffffffffffffffffff16815260200190815260200160002060000182815481101515610acf57fe5b906000526020600020016040518082805460018160011615610100020316600290048015610b345780601f10610b12576101008083540402835291820191610b34565b820191906000526020600020905b815481529060010190602001808311610b20575b505091505060405180910390201415610b51576001915050610b64565b8080600101915050610a2b565b50600090505b92915050565b60016020528060005260406000206000915090505481565b600080610b8e85610905565b1515610b9957600080fd5b600360003373ffffffffffffffffffffffffffffffffffffffff1673ffffffffffffffffffffffffffffffffffffffff168152602001908152602001600020600001859080600181540180825580915050906001820390600052602060002001600090919290919091509080519060200190610c169291906115e3565b50506000859080600181540180825580915050906001820390600052602060002001600090919290919091509080519060200190610c559291906115e3565b5050336002866040518082805190602001908083835b602083101515610c905780518252602082019150602081019050602083039250610c6b565b6001836020036101000a038019825116818451168082178552505050505050905001915050908152602001604051809103902060000160006101000a81548173ffffffffffffffffffffffffffffffffffffffff021916908373ffffffffffffffffffffffffffffffffffffffff160217905550836002866040518082805190602001908083835b602083101515610d3d5780518252602082019150602081019050602083039250610d18565b6001836020036101000a038019825116818451168082178552505050505050905001915050908152602001604051809103902060010181905550826002866040518082805190602001908083835b602083101515610db05780518252602082019150602081019050602083039250610d8b565b6001836020036101000a0380198251168184511680821785525050505050509050019150509081526020016040518091039020600201819055506002856040518082805190602001908083835b602083101515610e225780518252602082019150602081019050602083039250610dfd565b6001836020036101000a0380198251168184511680821785525050505050509050019150509081526020016040518091039020600101546002866040518082805190602001908083835b602083101515610e915780518252602082019150602081019050602083039250610e6c565b6001836020036101000a03801982511681845116808217855250505050505090500191505090815260200160405180910390206002015491509150935093915050565b6000806002836040518082805190602001908083835b602083101515610f0f5780518252602082019150602081019050602083039250610eea565b6001836020036101000a038019825116818451168082178552505050505050905001915050908152602001604051809103902060020154905060006002846040518082805190602001908083835b602083101515610f825780518252602082019150602081019050602083039250610f5d565b6001836020036101000a038019825116818451168082178552505050505050905001915050908152602001604051809103902060000160009054906101000a900473ffffffffffffffffffffffffffffffffffffffff1690506002846040518082805190602001908083835b6020831015156110135780518252602082019150602081019050602083039250610fee565b6001836020036101000a038019825116818451168082178552505050505050905001915050908152602001604051809103902060020154600160003373ffffffffffffffffffffffffffffffffffffffff1673ffffffffffffffffffffffffffffffffffffffff16815260200190815260200160002054101561109b5760009250505061132c565b81600160003373ffffffffffffffffffffffffffffffffffffffff1673ffffffffffffffffffffffffffffffffffffffff1681526020019081526020016000206000828254039250508190555081600160008373ffffffffffffffffffffffffffffffffffffffff1673ffffffffffffffffffffffffffffffffffffffff168152602001908152602001600020600082825401925050819055507fddf252ad1be2c89b69c2b068fc378daa952ba7f163c4a11628f55a4df523b3ef338284604051808473ffffffffffffffffffffffffffffffffffffffff1673ffffffffffffffffffffffffffffffffffffffff1681526020018373ffffffffffffffffffffffffffffffffffffffff1673ffffffffffffffffffffffffffffffffffffffff168152602001828152602001935050505060405180910390a1600460003373ffffffffffffffffffffffffffffffffffffffff1673ffffffffffffffffffffffffffffffffffffffff1681526020019081526020016000206000018490806001815401808255809150509060018203906000526020600020016000909192909190915090805190602001906112519291906115e3565b50506002846040518082805190602001908083835b60208310151561128b5780518252602082019150602081019050602083039250611266565b6001836020036101000a03801982511681845116808217855250505050505090500191505090815260200160405180910390206003013390806001815401808255809150509060018203906000526020600020016000909192909190916101000a81548173ffffffffffffffffffffffffffffffffffffffff021916908373ffffffffffffffffffffffffffffffffffffffff160217905550506001925050505b919050565b6060600580548060200260200160405190810160405280929190818152602001828054801561137f57602002820191906000526020600020905b81548152602001906001019080831161136b575b5050505050905090565b6000600360008373ffffffffffffffffffffffffffffffffffffffff1673ffffffffffffffffffffffffffffffffffffffff168152602001908152602001600020600001805490509050919050565b60606000806060600360008773ffffffffffffffffffffffffffffffffffffffff1673ffffffffffffffffffffffffffffffffffffffff1681526020019081526020016000206000018581548110151561142e57fe5b906000526020600020018054600181600116156101000203166002900480601f0160208091040260200160405190810160405280929190818152602001828054600181600116156101000203166002900480156114cc5780601f106114a1576101008083540402835291602001916114cc565b820191906000526020600020905b8154815290600101906020018083116114af57829003601f168201915b50505050509050806002826040518082805190602001908083835b60208310151561150c57805182526020820191506020810190506020830392506114e7565b6001836020036101000a0380198251168184511680821785525050505050509050019150509081526020016040518091039020600101546002836040518082805190602001908083835b60208310151561157b5780518252602082019150602081019050602083039250611556565b6001836020036101000a038019825116818451168082178552505050505050905001915050908152602001604051809103902060020154935093509350509250925092565b6006818154811015156115cf57fe5b906000526020600020016000915090505481565b828054600181600116156101000203166002900490600052602060002090601f016020900481019282601f1061162457805160ff1916838001178555611652565b82800160010185558215611652579182015b82811115611651578251825591602001919060010190611636565b5b50905061165f9190611663565b5090565b61168591905b80821115611681576000816000905550600101611669565b5090565b9056fea165627a7a72305820161e2dade87566a5e3c704a6107537c4b719ab585c1f0369f996cc9871f411f00029",
  "source": "pragma solidity ^0.5.0; //We have to specify what version of the compiler this code will use\n\ncontract Store{\n\n    struct Music {\n        address owner; // who create this song\n        bytes32 title; // the name of this song\n        uint price ;   // the price of this song\n        address[] buyers; // who buy this song\n    }\n\n    struct Owner {\n        string[] ownerMusicList; // 存的是url\n    }\n\n    struct Buyer {\n        string[] buyerMusicList; //store url of the song\n    }\n\n    string[] allMusic; // store all music\n\n    mapping (address => uint) public wallets;  //store money\n    mapping (string => Music) musicStructs;  //\n    mapping (address => Owner) ownerStructs;  //each address maps to a owner\n    mapping (address => Buyer) buyerStructs;\n\n\n    bytes32[] public ownersList;\n    bytes32[] public buyersList;\n\n    event Transfer(address from, address to, uint256 value);\n\n    constructor (bytes32[] memory owners, bytes32[] memory buyers)  public {\n        ownersList = owners;\n        buyersList = buyers;\n    }\n\n    function buyMusic(string  memory code) public returns(bool success){\n        uint amount = musicStructs[code].price;\n        address receiver = musicStructs[code].owner;\n        if (wallets[msg.sender] < musicStructs[code].price) return false;\n        wallets[msg.sender] -= amount;\n        wallets[receiver] += amount;\n        emit Transfer(msg.sender, receiver, amount);\n        buyerStructs[msg.sender].buyerMusicList.push(code);\n        musicStructs[code].buyers.push(msg.sender);\n        return true;\n    }\n\n\n    function uploadMusic(string memory code, bytes32 musicName, uint cost)  public payable returns(bytes32, uint) {\n        require(validMusic(code));\n        ownerStructs[msg.sender].ownerMusicList.push(code);\n        allMusic.push(code);\n        musicStructs[code].owner = msg.sender;\n        musicStructs[code].title = musicName;\n        musicStructs[code].price = cost;\n        return (musicStructs[code].title,musicStructs[code].price);\n    }\n\n    function allOwners() public view returns (bytes32[] memory ){\n        return ownersList;\n    }\n\n    function allBuyers()  public view returns (bytes32[] memory ){\n        return buyersList;\n    }\n\n    function getWallet(address pAddress) public view  returns(uint){\n        return wallets[pAddress];\n    }\n\n    function downloadMusic(address ownerAddress, uint index) public view  returns (string memory , bytes32, uint) {\n        string memory url = ownerStructs[ownerAddress].ownerMusicList[index];\n        return (url, musicStructs[url].title, musicStructs[url].price);\n    }\n\n    function checkMusicForBuyer(string memory code, address buyerAddress) public  view returns (bool){\n        for(uint i = 0; i < buyerStructs[buyerAddress].buyerMusicList.length; i++){\n          if(keccak256(bytes(buyerStructs[buyerAddress].buyerMusicList[i])) == keccak256(bytes(code))) {\n            return true;\n          }\n        }   \n        return false;\n    }\n\n    function getMusicCount(address ownerAddress) public view  returns (uint){\n        return ownerStructs[ownerAddress].ownerMusicList.length;\n    }\n\n    function addToWallet(uint amount ) public payable  returns (bool success){\n        wallets[msg.sender] += amount;\n        return true;\n    }\n\n    function validMusic(string memory code)public view  returns (bool){\n        for(uint i = 0; i < allMusic.length;i++){\n            if (keccak256(bytes(allMusic[i])) == keccak256(bytes(code))){\n                return false;\n            }\n        }\n        return true;\n    }\n    \n    /*\n    function toBytes(address x) public  returns (bytes memory  b) {\n        b = new bytes(20);\n        for (uint i = 0; i < 20; i++)\n        b[i] = byte(uint8(uint(x) / (2**(8*(19 - i)))));\n    }\n    */\n\n}\n",
  "sourcePath": "/home/zzt/trufflewebpack/contracts/Store.sol",
  "compiler": {
    "name": "solc",
    "version": "0.5.0+commit.1d4f565a.Emscripten.clang"
  },
  "schemaVersion": "3.0.0",
  "updatedAt": "2018-12-27T17:08:43.754Z",
  "devdoc": {
    "methods": {}
  },
  "userdoc": {
    "methods": {}
  }
}